:020000040800F2
:10000000000002200D3F0008BD0D0008BF0D0008D4
:10001000C10D0008C30D0008C50D00080000000058
:10002000000000000000000000000000C70D0008F4
:10003000C90D000800000000CB0D0008CD0D000820
:10004000613F0008613F0008613F0008613F000810
:10005000613F0008613F0008613F0008613F000800
:10006000613F0008613F0008613F0008613F0008F0
:10007000613F0008613F0008613F0008613F0008E0
:10008000613F0008613F0008613F0008613F0008D0
:10009000613F0008613F0008613F0008613F0008C0
:1000A000613F0008613F0008613F0008613F0008B0
:1000B000613F0008613F0008613F0008613F0008A0
:1000C000613F0008613F0008613F0008613F000890
:1000D000613F0008613F0008613F0008613F000880
:1000E000613F0008613F000800000000613F000818
:1000F000613F0008613F0008613F0008613F000860
:10010000613F0008613F0008613F0008613F00084F
:10011000613F0008613F0008613F0008613F00083F
:10012000613F0008613F0008613F0008613F00082F
:10013000613F0008613F0008613F0008613F00081F
:1001400000000000000000000000000000000000AF
:10015000613F0008613F0008613F0008613F0008FF
:10016000613F0008613F0008613F0008613F0008EF
:10017000613F0008613F0008613F00080000000087
:10018000613F0008613F0008613F0008613F0008CF
:10019000613F0008613F0008613F0008613F0008BF
:1001A000613F0008613F0008613F0008613F0008AF
:1001B000613F0008613F0008613F0008613F00089F
:1001C000613F0008613F0008613F0008613F00088F
:1001D000613F0008613F0008613F0008613F00087F
:1001E000613F0008613F0008613F0008613F00086F
:1001F000613F0008613F0008613F0008613F00085F
:10020000613F0008613F0008613F0008613F00084E
:10021000613F0008613F0008613F0008613F00083E
:10022000613F0008613F0008613F000800000000D6
:10023000613F0008613F000800000000613F0008C6
:10024000613F0008613F0008613F0008613F00080E
:10025000613F0008613F0008613F0008613F0008FE
:10026000613F0008613F0008613F0008613F0008EE
:10027000613F0008613F0008613F00080000000086
:10028000613F0008613F0008613F00080000000076
:0802900000000000613F0008BE
:1002980010B5054C237833B9044B13B10448AFF3B8
:1002A80000800123237010BD100000200000000012
:1002B800BC3F000808B5034B1BB103490348AFF323
:1002C800008008BD0000000014000020BC3F0008AA
:1002D80053B94AB9002908BF00281CBF4FF0FF31A5
:1002E8004FF0FF3000F088B9ADF1080C6DE904CE8D
:1002F80000F006F8DDF804E0DDE9022304B07047F9
:100308002DE9F047089D8E4604468846002B4AD1C1
:100318008A42174662D9B2FA82F64EB1C6F1200374
:1003280001FA06F820FA03F3B74043EA0808B44094
:100338004FEA174E1FFA87FCB8FBFEF1230C0EFBA1
:10034800118843EA084301FB0CF29A4209D9FB18C9
:1003580001F1FF3080F0EA809A4240F2E7800239EA
:100368003B449A1AA3B2B2FBFEF00EFB102243EAFA
:10037800024300FB0CFC9C4509D9FB1800F1FF3235
:1003880080F0D6809C4540F2D3803B44023840EA56
:100398000140A3EB0C0300211DB1F3400022C5E985
:1003A8000032BDE8F0878B4205D90DB1C5E90001DF
:1003B80000210846F5E7B3FA83F1002946D17345D1
:1003C80002D3824200F20581841A6EEB03020120F7
:1003D8009046002DE5D0C5E90048E2E7002A00F084
:1003E8009080B2FA82F6002E40F0A4808A1A030C9C
:1003F8004FEA174E80B2BCB20121B2FBFEFC0EFBE5
:100408001C2243EA024304FB0CF29A4207D9FB1868
:100418000CF1FF3802D29A4200F2E080C4469B1ADF
:10042800B3FBFEF20EFB123340EA034302FB04F473
:100438009C4207D9FB1802F1FF3002D29C4200F21D
:10044800CA8002461B1B42EA0C40A5E7C1F1200600
:100458008B4022FA06F71F430EFA01F420FA06F33E
:100468002EFA06FE4FEA1749234300FA01F81FFA4D
:1004780087FCBEFBF9F01C0C09FB10EE44EA0E44A5
:1004880000FB0CFEA64502FA01F209D93C1900F15D
:10049800FF3A80F09C80A64540F2998002383C449F
:1004A800A4EB0E041FFA83FEB4FBF9F309FB134413
:1004B8004EEA044403FB0CFCA44508D93C1903F19B
:1004C800FF3E80F08280A4457FD9023B3C4443EA4A
:1004D8000040A4EB0C04A0FB02EC64457346E14623
:1004E80062D35FD05DB1B8EB030264EB090404FA90
:1004F80006F622FA01F31E43CC40C5E90064002148
:100508004FE7B1FBF2FC010C41EA0E4180B240EA30
:1005180001423B4638463C46B846BE462026B1FB1B
:10052800F7F1A2EB080241EA0C4166E7014618E739
:1005380010462CE7C6F120022EFA02F3B740B1406C
:1005480020FA02F24FEA174E0A43B3FBFEF8BCB298
:100558000EFB1833110C41EA034108FB04F9B040C3
:1005680089454FEA104380B23ED9791808F1FF3C1B
:1005780001D289451FD8A1EB0901B1FBFEF909FB9E
:1005880004F80EFB191192B242EA0142424529D2FF
:10059800BA1809F1FF31C4D24245C2D2A9F1020109
:1005A8003A44BEE7F0459DD2BEEB02036CEB070C64
:1005B8000138E14696E7A7EB09094944A8F1020C7E
:1005C800B1FBFEF909FB04F8DBE773467FE7504609
:1005D80066E70846FDE63B44023A33E7ACF1020C15
:1005E8003B441CE749469CE7A1EB0901C446B1FB23
:1005F800FEF909FB04F8C4E7704700BF10B584B0E2
:100608000024009401940294039400F059FC0123FF
:100618008DF800308DF8014001941F228DF80820D4
:1006280087228DF809208DF80A408DF80B408DF847
:100638000C308DF80D308DF80E408DF80F4068465F
:1006480000F05CFC042000F049FC04B010BD72B658
:10065800FEE7000000B59DB04C22002109A803F078
:100668007CFC2022002101A803F077FC022002F084
:10067800E5FB00230093244BDA6A22F00102DA62D8
:10068800DB6A03F001030093204A936923F4404393
:1006980043F480439361936903F440430093009BC0
:1006A8001A4B9B6913F4005FFAD0012309934FF4A6
:1006B80080330A9302231293139314930C221592F6
:1006C80016931793189319921A9300231B9309A84A
:1006D80000F040FC98B93F230193032302930023C1
:1006E80003930493059340220692079308930121EC
:1006F80001A801F083F820B91DB05DF804FBFFF7ED
:10070800A6FFFFF7A4FF00BF0004005800480258E6
:1007180008B5FFF773FF02F0E3FBFFF79BFF00F05C
:1007280025F800F027F900F0A1F900F049FA00F0E7
:10073800C1FA0D4C0121204602F076FB4FF47A7085
:1007480002F00EFC0221204602F06EFB4FF47A7094
:1007580002F006FC0421204602F066FB4FF47A7092
:1007680002F0FEFBE5E700BF00080258F0B58DB0C7
:1007780000240794089409940A940B943D4BD3F8E9
:10078800E02042F01002C3F8E020D3F8E02002F0A5
:1007980010020092009AD3F8E02042F00402C3F855
:1007A800E020D3F8E02002F004020192019AD3F885
:1007B800E02042F02002C3F8E020D3F8E02002F065
:1007C80020020292029AD3F8E02042F08002C3F895
:1007D800E020D3F8E02002F080020392039AD3F8D5
:1007E800E02042F00102C3F8E020D3F8E02002F054
:1007F80001020492049AD3F8E02042F00802C3F8F8
:10080800E020D3F8E02002F008020592059AD3F818
:10081800E02042F04002C3F8E020D3F8E03003F0D3
:1008280040030693069B144F22460721384602F0E0
:10083800F5FA124D22468021284602F0EFFA0723E6
:1008480007930126089609940A9407A9384602F0E6
:10085800D5F980230793089609940A9407A928468E
:1008680002F0CCF921464FF0806002F093FB0DB006
:10087800F0BD00BF00440258000802580018025892
:10088800F0B5B9B000233393349335933693379347
:10089800314B1B680BB139B0F0BD2F4B01221A60E8
:1008A800C022002102A803F058FB4FF080720023F9
:1008B800CDE9022302A801F039FA002848D1274BD4
:1008C800D3F8D42042F48052C3F8D420D3F8D430DB
:1008D80003F480530193019B41F2010333930226F1
:1008E800349600253595032436940C27379733A979
:1008F8001B4802F083F94FF680733393349635958D
:100908003694379733A9174802F078F94CF23373C5
:100918003393349635953694379733A9124802F0B5
:100928006DF980233393349635953694092337939C
:1009380033A90E4802F062F94FF48053339334968A
:1009480035953694379733A9094802F057F9A2E745
:10095800FFF77DFEB3E700BF2C00002000440258DB
:100968000014025800100258000C025800080258DF
:100978000018025870B58EB00023079308930993A6
:100988000A930B930C930D93009301930293039393
:100998000493059306933048304A026002F5827248
:1009A800426006228260C360036110224261836153
:1009B800C36103624FF48051416283624FF4804106
:1009C800C162036343638363C363036403260796B7
:1009D8000F250895142409940B9211210C914FF0BE
:1009E80040530D9300960195029404920591069345
:1009F8006A4607A902F072FB002827D11848174B4E
:100A0800036003F58273436000228260C260026162
:100A1800102343618261C261026242628262C262E1
:100A2800026342638263C2630264042107910F2157
:100A38000891052109910A920B9311230C930D92A9
:100A480007A902F04BFB20B90EB070BDFFF7FFFD00
:100A5800D4E7FFF7FCFDF7E77C00002000400052D8
:100A68003000002008B5FFF70BFF08BD08B50C489B
:100A78000C4B036002234360202383601023C36070
:100A8800162303610023436101228261C36103626B
:100A980002F084FB00B908BDFFF7D9FDFBE700BFF2
:100AA800C800002000500052F0B5BBB00446002139
:100AB80035913691379138913991C02204A803F0C5
:100AC8004CFA2268394B9A4201D03BB0F0BD4FF046
:100AD80000720023CDE9042304A801F027F90028B7
:100AE80060D1334BD3F8D42042F48042C3F8D420E9
:100AF800D3F8D42002F480420092009AD3F8E02080
:100B080042F01002C3F8E020D3F8E02002F010020F
:100B18000192019AD3F8E02042F02002C3F8E020C5
:100B2800D3F8E02002F020020292029AD3F8E020E3
:100B380042F04002C3F8E020D3F8E03003F040036D
:100B48000393039B04233593022536950024379499
:100B580038940926399635A9164802F04FF84FF40B
:100B6800886335933695379438943996124F35A95A
:100B7800384602F043F84FF440733593369537946E
:100B880038940A26399635A9384602F037F84023B2
:100B98003593369537943894399635A9074802F035
:100BA8002DF892E7FFF753FD9BE700BF0050005276
:100BB8000044025800100258001402580018025845
:100BC80008B51448144B03604FF4800343600023B6
:100BD80083600322C260036143614FF080628261D7
:100BE8004FF08052C261036243628362C3624FF076
:100BF800804242638363C363036443648364C3645E
:100C080003654365836502F025FB00B908BDFFF75E
:100C18001EFDFBE7140100200030014010B5B8B0FC
:100C28000446002133913491359136913791C02291
:100C380002A803F092F922681B4B9A4201D038B0FF
:100C480010BD4FF480520023CDE9022302A801F021
:100C58006DF830BB154BD3F8F02042F48052C3F83E
:100C6800F020D3F8F02002F480520092009AD3F8D2
:100C7800E02042F00102C3F8E020D3F8E03003F0AE
:100C880001030193019BE023339302233493002350
:100C9800359336930523379333A9054801F0AEFF02
:100CA800CDE7FFF7D4FCD5E70030014000440258F7
:100CB8000000025808B51748174B03604FF4E1339A
:100CC800436000238360C36003610C224261836137
:100CD800C36103624362836202F0CBFF70B90021F3
:100CE8000C4803F03EF860B900210A4803F05EF8AA
:100CF80050B9084803F016F848B908BDFFF7A7FC33
:100D0800EDE7FFF7A4FCEFE7FFF7A1FCF1E7FFF73A
:100D18009EFCF2E79C010020004C004010B5B8B0E2
:100D28000446002133913491359136913791C02290
:100D380002A803F012F922681B4B9A4201D038B07E
:100D480010BD02220023CDE9022302A800F0EEFF25
:100D580030BB164BD3F8E82042F40022C3F8E82051
:100D6800D3F8E82002F400220092009AD3F8E02099
:100D780042F00102C3F8E020D3F8E03003F00103A9
:100D88000193019B03233393022334930023359368
:100D980036930823379333A9054801F02FFFCEE790
:100DA800FFF755FCD5E700BF004C0040004402584F
:100DB80000000258FEE7FEE7FEE7FEE7FEE77047A1
:100DC8007047704708B502F0B9F808BD82B0074B04
:100DD800D3F8F42042F00202C3F8F420D3F8F43038
:100DE80003F002030193019B02B0704700440258CC
:100DF800002804DB0901C9B2044B1954704700F0FC
:100E08000F000901C9B2024B1954704700E400E011
:100E180014ED00E000B500F00700C0F1070CBCF1CC
:100E2800040F28BF4FF0040C031D062B0FD9C31E57
:100E38004FF0FF3E0EFA0CF021EA000199400EFA3D
:100E480003FE22EA0E0241EA02005DF804FB0023D9
:100E5800EEE700000649CB6823F4E0631B041B0C93
:100E6800000200F4E0600343024A1A43CA60704774
:100E780000ED00E00000FA0510B50446054BD868FF
:100E8800C0F30220FFF7C6FF01462046FFF7B0FF78
:100E980010BD00BF00ED00E00138B0F1807F0BD23B
:100EA8004FF0E0235861054AF02182F82310002012
:100EB800986107221A6170470120704700ED00E031
:100EC800BFF35F8F044B5A6A22F480325A620022C1
:100ED800C3F89420704700BF00ED00E040F0010027
:100EE800054BC3F894005A6A42F480325A62BFF341
:100EF8004F8FBFF36F8F704700ED00E04378144ABF
:100F0800C2F89830D2F8A03023F00103C2F8A0301C
:100F18004368C2F89C30017BC37A1B0643EA01731D
:100F2800817A43EAC143417B43EA8143817B43EAB7
:100F38004143C17B43EA0143417A43EA0123017AF1
:100F480043EA410301780B43C2F8A030704700BF61
:100F580000ED00E0002800F0398338B50446036846
:100F680013F0010F25D0944A136903F03803926AED
:100F7800102B15D0182B0FD06368B3F5803F3FD0E6
:100F8800002B53D18C4B1A6822F480321A601A68ED
:100F980022F480221A6038E002F00302022AEBD120
:100FA800854B1B6813F4003F03D06368002B00F0E7
:100FB8000F83236813F0020F00F0A1807E4A1369A3
:100FC800926A13F038035AD0182B55D0E368002BD7
:100FD80000F0DE8078490A6822F0190213430B609A
:100FE80001F0B8FF0546744B1B6813F0040F40F07E
:100FF800AD8001F0AFFF401B0228F4D90320EEE2D8
:101008006D4A136843F48033136063682BB301F0AF
:10101800A1FF0546684B1B6813F4003FC9D101F0D6
:1010280099FF401B6428F5D90320D8E2B3F5A02F17
:1010380009D0614B1A6822F480321A601A6822F4C7
:1010480080221A60E1E75C4B1A6842F480221A6039
:101058001A6842F480321A60D7E701F07BFF054630
:10106800554B1B6813F4003FA3D001F073FF401BDE
:101078006428F5D90320B2E212F0030FA6D14E4B33
:101088001B6813F0040F03D0E368002B00F0A28262
:10109800494A136823F01903E1680B43136001F010
:1010A80059FF0546444B1B6813F0040F06D101F0A5
:1010B80051FF401B0228F5D9032090E201F064FF9C
:1010C80041F20303984212D82269402A07D03A49CC
:1010D8004B6823F47C3343EA02334B600FE0364A13
:1010E800536823F47C3343F40033536007E0324AF7
:1010F800536823F0FE43216943EA01635360236880
:1011080013F0100F00F088802B4A136903F038039E
:10111800926A082B56D0182B50D0E369002B00F0A8
:10112800B880254A136843F08003136001F012FF6A
:101138000546214B1B6813F4807F40F0888001F03E
:1011480009FF401B0228F4D9032048E201F01CFFE4
:1011580041F20303984212D82269402A07D016495F
:101168004B6823F47C3343EA02334B60C7E7124AE7
:10117800536823F47C3343F400335360BFE70E4ACB
:10118800536823F0FE43216943EA01635360B6E7DD
:10119800094A136823F00103136001F0DBFE0546DA
:1011A800054B1B6813F0040FA9D001F0D3FE401BB8
:1011B8000228F5D9032012E20044025802F0030283
:1011C800012AAAD1A14B1B6813F4807F03D0E369DD
:1011D800802B40F0018201F0D7FE41F203039842D0
:1011E80012D8226A202A07D098494B6823F0F8437E
:1011F80043EA82634B600FE0944A536823F0F84354
:1012080043F08043536007E0904AD36823F07C534F
:10121800216A43EA0163D360236813F0080F60D0A2
:101228006369002B49D0894A536F43F00103536720
:1012380001F090FE0546854B5B6F13F0020F50D10D
:1012480001F088FE401B0228F5D90320C7E101F010
:101258009BFE41F20303984212D8226A202A07D043
:101268007A494B6823F0F84343EA82634B60D3E73B
:10127800764A536823F0F84343F080435360CBE742
:10128800724AD36823F07C53216A43EA0163D3602E
:10129800C2E76E4A136823F08003136001F05AFE18
:1012A80005466A4B1B6813F4807FB5D001F052FEE7
:1012B800401B0228F5D9032091E1644A536F23F0BB
:1012C8000103536701F046FE0546604B5B6F13F060
:1012D800020F06D001F03EFE401B0228F5D903207C
:1012E8007DE1236813F0200F29D0A3699BB1574AE9
:1012F800136843F48053136001F02CFE0546534BEA
:101308001B6813F4005F1AD101F024FE401B022869
:10131800F5D9032063E14D4A136823F48053136021
:1013280001F018FE0546494B1B6813F4005F06D010
:1013380001F010FE401B0228F5D903204FE1236875
:1013480013F0040F21D1636A002B00F047813F4A54
:10135800126902F03802182A00F0EE80022B79D0C8
:101368003A4A136823F08073136001F0F3FD0446D2
:10137800364B1B6813F0007F00F0DC8001F0EAFDBB
:10138800001B0228F4D9032029E1314A136843F4E9
:101398008073136001F0DEFD05462D4B1B6813F4C6
:1013A800807F06D101F0D6FD401B6428F5D90320C3
:1013B80015E1A368012B0AD00BBB244B1A6F22F04E
:1013C80001021A671A6F22F004021A6704E01F4A22
:1013D800136F43F001031367A36833B301F0BAFD39
:1013E80005461A4B1B6F13F0020FACD101F0B2FD8A
:1013F800401B41F288339842F3D90320EFE0052BD4
:1014080009D0124B1A6F22F001021A671A6F22F0E4
:1014180004021A67E0E70D4B1A6F42F004021A67DC
:101428001A6F42F001021A67D6E701F093FD0546EC
:10143800064B1B6F13F0020F85D001F08BFD401B8C
:1014480041F288339842F3D90320C8E00044025897
:1014580000480258694A136823F08073136001F04A
:1014680079FD0546654B1B6813F0007F06D001F037
:1014780071FD401B0228F5D90320B0E05F4B996A43
:101488005F4A0A40A16AE06A41EA00110A439A6287
:10149800226B013AC2F30802616B0139490289B231
:1014A8000A43A16B0139090401F4FE010A43E16B07
:1014B8000139090601F0FE410A431A63DA6A22F08B
:1014C8000102DA625A6B6FF3CF02A16C42EAC102E1
:1014D8005A63DA6A22F00C02216C0A43DA62DA6A89
:1014E80022F00202616C0A43DA62DA6A42F480325C
:1014F800DA62DA6A42F40032DA62DA6A42F48022A4
:10150800DA62DA6A42F00102DA621A6842F080723C
:101518001A6001F01FFD0446384B1B6813F0007F6A
:1015280006D101F017FD001B0228F5D9032056E06B
:10153800002054E0002052E0304A916A106B012BE1
:101548004ED001F00303A26A93424BD1C1F30511B7
:10155800E36A994248D1C0F30802236B013B9A42DF
:1015680044D1C0F34622636B013B9A4240D1C0F399
:101578000642A36B013B9A423CD1C0F30660E36B81
:10158800013B984238D11D4B5B6BC3F3CC03A26C73
:101598009A4201D1002022E0184AD36A23F00103BD
:1015A800D36201F0D7FC054601F0D4FCA842FBD079
:1015B800124A536B6FF3CF03A16C43EAC103536321
:1015C800D36A43F00103D362002008E0012070478A
:1015D800012004E0012002E0012000E0002038BDE5
:1015E8000120FCE70120FAE70120F8E70120F6E7EF
:1015F8000120F4E70120F2E70120F0E70044025857
:101608000CFCFFFF754B1B6903F03803102B00F02F
:10161800DE80182B0FD0002B40F0DB806F4B1B684F
:1016280013F0200F00F0D7806C4B1B68C3F3C10385
:101638006B48D840704710B4684B9A6A02F00302AE
:101648009C6AC4F30510D96A01F001015B6BC3F30E
:10165800CC0301FB03F307EE903AF8EE677A14F433
:101668007C7F77D0012A4AD0022A76D0002A40F01F
:1016780091805A4B1B6813F0200F23D057490A68F2
:10168800C2F3C102564BD34007EE103AF8EE476A50
:1016980007EE100AB8EE476A86EE867A0B6BC3F33C
:1016A800080306EE903AF8EE666A9FED4E6A67EE1A
:1016B800867A76EEA77AF7EE006A77EEA67A27EEB4
:1016C800277A38E007EE100AF8EE476A9FED466A77
:1016D80086EE267A414B1B6BC3F3080306EE903A5D
:1016E800F8EE666A9FED3F6A67EE867A76EEA77A2D
:1016F800F7EE006A77EEA67A27EE277A1BE007EE68
:10170800100AF8EE476A9FED396A86EE267A334B5F
:101718001B6BC3F3080306EE903AF8EE666A9FED7A
:10172800316A67EE867A76EEA77AF7EE006A77EE88
:10173800A67A27EE277A294B1B6BC3F3462301337E
:1017480007EE903AF8EE677AC7EE276AFCEEE67A7B
:1017580017EE900A5DF8044B704707EE100AF8EE92
:10176800476A9FED236A86EE267A1C4B1B6BC3F3F0
:10177800080306EE903AF8EE666A9FED1A6A67EE7D
:10178800867A76EEA77AF7EE006A77EEA67A27EEE3
:10179800277AD0E707EE100AF8EE476A9FED136A3A
:1017A80086EE267A0D4B1B6BC3F3080306EE903AC0
:1017B800F8EE666A9FED0B6A67EE867A76EEA77A90
:1017C800F7EE006A77EEA67A27EE277AB3E709489C
:1017D8007047094870470248704700BF00440258E4
:1017E8000090D003000000390024744C0024744A8F
:1017F80020BCBE4B40787D0100093D00002800F068
:10180800328170B50D4604469B4B1B6803F00F03ED
:101818008B420BD2984A136823F00F030B431360D3
:10182800136803F00F038B4240F01F81236813F005
:10183800040F0CD02269914B9B6903F070039A4204
:1018480005D98E498B6923F070031A438A6123688E
:1018580013F0080F0CD06269884BDB6903F0700342
:101868009A4205D98549CB6923F070031A43CA61A6
:10187800236813F0100F0CD0A269804BDB6903F4C6
:10188800E0639A4205D97D49CB6923F4E0631A43A2
:10189800CA61236813F0200F0CD0E269774B1B6AEA
:1018A80003F070039A4205D974490B6A23F0700358
:1018B8001A430A62236813F0020F0CD0E2686F4BD8
:1018C8009B6903F00F039A4205D96C498B6923F091
:1018D8000F031A438A61236813F0010F41D0674A46
:1018E800936923F47063A1680B4393616368022BC7
:1018F8000AD0032B27D0012B2CD0604A126812F093
:10190800040F06D10120ADE0126812F4003F00F088
:10191800AE805A490A6922F0070213430B6101F0AD
:1019280019FB0646554B1B6903F038036268B3EB95
:10193800C20F16D001F00EFB801B41F2883398428B
:10194800F0D903208EE04D4A126812F0007FE0D1F2
:10195800012087E0494A126812F4807FD9D101201A
:1019680080E0236813F0020F0CD0E268434B9B69B8
:1019780003F00F039A4205D240498B6923F00F0305
:101988001A438A613C4B1B6803F00F03AB420AD928
:10199800394A136823F00F032B431360136803F0CD
:1019A8000F03AB4265D1236813F0040F0CD02269F2
:1019B800324B9B6903F070039A4205D22F498B6919
:1019C80023F070031A438A61236813F0080F0CD0C0
:1019D80062692A4BDB6903F070039A4205D22749F2
:1019E800CB6923F070031A43CA61236813F0100F00
:1019F8000CD0A269214BDB6903F4E0639A4205D25B
:101A08001E49CB6923F4E0631A43CA61236813F0C3
:101A1800200F0CD0E269194B1B6A03F070039A423D
:101A280005D216490B6A23F070031A430A62FFF7BE
:101A3800E9FD12498B69C3F30323114AD35C03F010
:101A48001F03D8408B6903F00F03D35C03F01F0317
:101A580020FA03F30B4A13600B4B18600B4B186802
:101A680001F016FA70BD012070470120FAE7012045
:101A7800F8E70120F6E700BF0020005200440258B2
:101A8800FC3F0008080000200C0000200400002093
:101A980008B5FFF7B7FD0B4A9369C3F303230A4957
:101AA800CB5C03F01F0320FA03F3926902F00F02E4
:101AB800885C00F01F0023FA00F0044A1060044A12
:101AC800136008BD00440258FC3F000808000020CD
:101AD8000C00002008B5FFF7DBFF054BDB69C3F3FB
:101AE8000213044AD35C03F01F03D84008BD00BFAB
:101AF80000440258FC3F000808B5FFF7C9FF054B32
:101B0800DB69C3F30223044AD35C03F01F03D84004
:101B180008BD00BF00440258FC3F0008404B9B6AC8
:101B280003F00303032B79D070B505460E463C4AF3
:101B3800136823F08063136001F00CFA0446384BF5
:101B48001B6813F0006F06D001F004FA031B022B88
:101B5800F5D9032070BD324B9A6A22F47C32296889
:101B680042EA01329A626A68013AC2F30802A96835
:101B78000139490289B20A43E9680139090401F4C3
:101B8800FE010A4329690139090601F0FE410A43A9
:101B98009A63DA6A22F0C00269690A43DA62DA6A89
:101BA80022F02002A9690A43DA62DA6A22F01002F6
:101BB800DA62DA6B6FF3CF02E96942EAC102DA63EB
:101BC800DA6A42F01002DA62C6B91A46DB6A43F4EE
:101BD8000023D362124A136843F08063136001F054
:101BE800B9F904460E4B1B6813F0006F14D101F0CD
:101BF800B1F9001B0228F5D90320ABE7012E05D067
:101C0800074AD36A43F40013D362E3E7044AD36A6A
:101C180043F48013D362DDE700209BE7012070477F
:101C280000440258404B9B6A03F00303032B79D00E
:101C380070B505460E463C4A136823F0805313607E
:101C480001F088F90446384B1B6813F0005F06D092
:101C580001F080F9031B022BF5D9032070BD324B2C
:101C68009A6A22F07C72296842EA01529A626A688A
:101C7800013AC2F30802A9680139490289B20A4344
:101C8800E9680139090401F4FE010A4329690139A7
:101C9800090601F0FE410A431A64DA6A22F4406236
:101CA80069690A43DA62DA6A22F40072A9690A43A6
:101CB800DA62DA6A22F48072DA625A6C6FF3CF025F
:101CC800E96942EAC1025A64DA6A42F48072DA6265
:101CD800C6B91A46DB6A43F48003D362124A136812
:101CE80043F08053136001F035F904460E4B1B682E
:101CF80013F0005F14D101F02DF9001B0228F5D96B
:101D08000320ABE7012E05D0074AD36A43F080735E
:101D1800D362E3E7044AD36A43F40003D362DDE7FE
:101D280000209BE70120704700440258F8B504469C
:101D3800036813F0006F30D0836EB3F5001F26D010
:101D48000ED8ABB1B3F5801F07D102210830FFF7D9
:101D5800E5FE054695B12E4621E0012635461EE0F2
:101D6800B3F5401F01D1002508E00126354616E0ED
:101D7800984AD36A43F40033D3620025954A136D19
:101D880023F44013A16E0B431365002607E00221DC
:101D98002830FFF747FF0546DCE70026354623686D
:101DA80013F4807F14D0A36D042B31D8DFE803F03F
:101DB800032229080800874AD36A43F40033D36210
:101DC8004DBB844A136D23F00703A16D0B431365C4
:101DD800236813F4007F38D0E36D802B4AD01FD8D6
:101DE80033B3402B19D1002104F10800FFF796FE08
:101DF800054622E0002104F10800FFF78FFE0546A2
:101E0800DEE7002104F12800FFF70CFF0546D7E7BD
:101E180001263546DCE72E46DAE70126354614E08A
:101E2800C02B0AD0B3F5807F07D0012635460CE0D9
:101E3800684AD36A43F40033D36215BB654A136D0D
:101E480023F4E073E16D0B431365236813F4806F8B
:101E58003CD0D4F8A830B3F5800F2FD016D8F3B102
:101E6800B3F5001F0FD1002104F10800FFF756FE5B
:101E7800054619E0002104F12800FFF7D3FE0546C6
:101E8800DBE72E46E1E7012635461FE0B3F5C00F34
:101E98000AD0B3F5000F07D00126354616E04D4AA3
:101EA800D36A43F40033D3627DB94A4A936D23F46D
:101EB8006003D4F8A8100B43936507E0002104F1F0
:101EC8002800FFF7AFFE0546EEE72E46236813F419
:101ED800006F2BD0D4F8AC30B3F1007F53D00DD8BD
:101EE800ABB1B3F1807F06D1002104F10800FFF700
:101EF80015FE054610E00126354617E0B3F1407F90
:101F08000AD0B3F1806F07D0012635460EE0314A7A
:101F1800D36A43F40033D362002D3BD12D4A936D2D
:101F280023F0E063D4F8AC100B439365236813F0F7
:101F3800007F13D0E36C202B36D030D833B1102B70
:101F48002AD1244AD36A43F40033D3629DBB214A81
:101F5800D36C23F03003E16C0B43D364236813F490
:101F6800805F47D0236EB3F5005F00F08D8027D8DF
:101F780093B3B3F5805F20D1002104F10800FFF787
:101F8800CDFD05462DE0002104F12800FFF74AFEAB
:101F98000546C1E72E46C9E701263546DEE7302B60
:101FA800D4D001263546D9E7022104F10800FFF70D
:101FB800B5FD0546CAE72E46D0E70126354619E0A5
:101FC800B3F5405F0DD0B3F5804F0AD001263546F2
:101FD80010E000BF00440258774AD36A43F4003344
:101FE800D362002D57D1744A136D23F4E043216E58
:101FF8000B431365236813F4005F17D0636EB3F5C2
:10200800003F59D04CD843B1B3F5803F45D10121A9
:1020180004F10800FFF782FD0546002D53D1664AFA
:10202800136D23F4E023616E0B431365236813F4E7
:10203800804F19D0D4F8B030B3F1005F54D047D8EE
:1020480043B1B3F1805F40D1012104F10800FFF7EB
:1020580065FD0546002D4ED1574A936D23F0E043A8
:10206800D4F8B0100B439365236813F4004F51D094
:10207800236FB3F1805F40D0B3F1005F55D0002BE0
:1020880040D00126354645E0002104F12800FFF73D
:10209800C9FD0546A5E72E46ACE701263546C5E746
:1020A800B3F5802FB9D0B3F5A02FB6D0B3F5403F24
:1020B800B3D001263546B9E7012104F12800FFF71E
:1020C800B1FD0546A9E72E46B0E701263546CBE720
:1020D800B3F1804FBED0B3F1A04FBBD0B3F1405F96
:1020E800B8D001263546BFE7012104F12800FFF7E3
:1020F80099FD0546AEE72E46B6E72F4AD36A43F464
:102108000033D362C5B92C4A136D23F04053216FB5
:102118000B431365236813F0807F1CD0A36C032B3B
:1021280044D8DFE803F0100B3C10012104F108004B
:10213800FFF7F4FC0546E5E72E46EBE71E4AD36AAF
:1021480043F40033D362A5BB1B4AD36C23F00303CB
:10215800A16C0B43D364236813F4800F2ED123683A
:1021680013F0010F00F0A680E36F282B00F2A08087
:10217800DFE803F08E9E9E9E9E9E9E9E889E9E9E5B
:102188009E9E9E9E979E9E9E9E9E9E9E8E9E9E9E7E
:102198009E9E9E9E8E9E9E9E9E9E9E9E8E0002212E
:1021A80004F10800FFF7BAFC0546CCE701263546DE
:1021B800D1E72E46CFE700BF00440258584A1368BB
:1021C80043F48073136000F0C5FE0746544B1B6848
:1021D80013F4807F05D100F0BDFEC01B6428F5D93B
:1021E8000325002D4AD14F4B1B6FD4F8B420534020
:1021F80013F4407F0CD04B4B1A6F22F44072196FC6
:1022080041F480311967196F21F4803119671A6711
:10221800D4F8B430B3F5807F15D08DBBD4F8B43082
:1022280003F44072B2F5407F1ED03E4A136923F48E
:102238007C5313613B490B6FD4F8B420C2F30B02F3
:1022480013430B678BE700F085FE0746354B1B6F82
:1022580013F0020FE1D100F07DFEC01B41F288337C
:102268009842F3D90325D8E72E48026922F47C5214
:102278002D4901EA131313430361DBE72E466EE78A
:102288002E466CE7012104F10800FFF747FC0546DC
:10229800E5B9244A536D23F03803E16F0B435365C6
:1022A80008E0012104F12800FFF7BCFC0546EFE730
:1022B80001263546236813F0020F17D0A36F052BAC
:1022C80029D8DFE803F00B05210B0B0B2E46F1E7AD
:1022D800012104F10800FFF721FC0546F5B9114A70
:1022E800536D23F00703A16F0B435365236813F065
:1022F800040F2CD0D4F89430052B00F2DC80DFE8F2
:1023080003F01B15D31B1B1B012104F12800FFF749
:1023180089FC0546E2E701263546E7E72E46E5E76C
:102328000048025800440258CFFFFF00012104F181
:102338000800FFF7F3FB0546002D40F0BF80B34AC5
:10234800936D23F00703D4F894100B439365236827
:1023580013F0200F1DD0D4F89030B3F1005F00F0D7
:10236800C18000F2B0804BB1B3F1805F40F0A8802B
:10237800002104F10800FFF7D1FB0546002D40F0CD
:10238800B880A24A536D23F0E043D4F890100B4371
:102398005365236813F0400F1DD0D4F89C30B3F573
:1023A800006F00F0BA8000F2A9804BB1B3F5806FDE
:1023B80040F0A180002104F10800FFF7AFFB0546BB
:1023C800002D40F0B180914A936D23F4E053D4F886
:1023D8009C100B439365236813F0800F1DD0D4F82D
:1023E800A030B3F5804F00F0B38000F2A2804BB16B
:1023F800B3F5005F40F09A80002104F10800FFF770
:102408008DFB0546002D40F0AA80804A936D23F489
:102418006043D4F8A0100B439365236813F0080FAA
:102428000DD0D4F88430B3F5805F00F09A80774AF5
:10243800536D23F44053D4F884100B435365236839
:1024480013F0100F0DD0D4F89830B3F5807F00F05A
:1024580092806E4A936D23F44073D4F898100B431E
:102468009365236813F4002F00F09A80D4F8A43001
:10247800B3F5803F00F08980B3F5003F08D0002B0A
:1024880040F08A80002104F10800FFF747FB054669
:10249800002D40F084805D4A936D23F44033D4F8D6
:1024A800A4100B4393657BE0012104F12800FFF79A
:1024B800B9FB054640E70126354648E72E4646E77C
:1024C8000126354665E7B3F1804F3FF457AFB3F1C6
:1024D800A04F3FF453AFB3F1405F3FF44FAF012635
:1024E800354656E7022104F12800FFF79BFB054615
:1024F80044E72E464DE7012635466CE7B3F5805F85
:102508003FF45EAFB3F5A05F3FF45AAFB3F5406F49
:102518003FF456AF012635465DE7022104F1280055
:10252800FFF780FB05464BE72E4654E70126354664
:1025380073E7B3F5004F3FF465AFB3F5204F3FF4B1
:1025480061AFB3F5C04F3FF45DAF0126354664E790
:10255800022104F12800FFF765FB054652E72E46E5
:102568005BE7022104F12800FFF75CFB00283FF439
:102578005EAF01265BE7022104F12800FFF752FB5A
:1025880000283FF466AF012663E7022104F1280022
:10259800FFF748FB05467BE70126354600E02E4657
:1025A800236813F4802F18D0D4F88830B3F5001FAF
:1025B8001FD0B3F5401F07D0B3F5801F20D1134AB1
:1025C800D36A43F40033D362EDB9104A536D23F450
:1025D8004013D4F888100B435365236813F4803FE5
:1025E8002CD0236DA3B1B3F5803F1FD0012635460B
:1025F80024E0012104F12800FFF714FB0546E3E776
:1026080001263546E9E72E46E7E700BF00440258B1
:10261800704AD36A43F40033D36275B96D4AD36CF8
:1026280023F48033216D0B43D36407E0022104F1C6
:102638000800FFF773FA0546EFE72E46236813F004
:10264800005F11D1236813F4003F28D0D4F88030FC
:10265800B3F5807F14D010D9B3F5007F15D0B3F54A
:10266800407F12D001261AE0022104F12800FFF76A
:10267800D9FA0028E6D00126E4E733B101260EE0B6
:10268800544AD36A43F40033D362002D69D1514AC6
:10269800536D23F44073D4F880100B4353652368BB
:1026A80013F4801F06D04B4A136D23F00043616F6B
:1026B8000B431365236813F0805F07D0454A1369FD
:1026C80023F48043D4F8B8100B431361236813F440
:1026D800001F06D03F4A136D23F08073E16E0B4351
:1026E8001365236813F0804F09D03A4B1A6922F416
:1026F80000421A611A69D4F8BC100A431A612368A7
:10270800002B06DA334AD36C23F04053616D0B4338
:10271800D364236813F4000F07D02E4A536D23F4B3
:102728004003D4F88C100B435365636813F0010F12
:1027380019D1636813F0020F1ED1636813F0040FF8
:1027480023D1636813F0080F28D1636813F0100FC2
:102758002DD1636813F0200F32D106B1012630461F
:10276800F8BD2E469BE7002104F10800FFF7D6F9D3
:102778000028DED00646DCE7012104F10800FFF757
:10278800CDF90028D9D00646D7E7022104F1080080
:10279800FFF7C4F90028D4D00646D2E7002104F197
:1027A8002800FFF73FFA0028CFD00646CDE70121E1
:1027B80004F12800FFF736FA0028CAD00646C8E711
:1027C800022104F12800FFF72DFA0028C5D00126C0
:1027D800C5E700BF0044025808B5FFF759F9054B93
:1027E8001B6AC3F30213044AD35C03F01F03D840E7
:1027F80008BD00BF00440258FC3F000810B4794BE4
:102808009A6A9C6AC4F3053CD96AC1F30011DB6B70
:10281800C3F3CC0301FB03F314F47C3F00F0DD8029
:1028280002F0030207EE903AF8EE677A012A4BD0DD
:10283800022A00F09880002A40F0B280694B1B6899
:1028480013F0200F23D067490A68C2F3C102664B10
:10285800D34007EE103AF8EE476A07EE10CAB8EE12
:10286800476A86EE867A8B6BC3F3080306EE903AC6
:10287800F8EE666A9FED5D6A67EE867A76EEA77A6D
:10288800F7EE006A77EEA67A27EE277A38E007EEA9
:1028980010CAF8EE476A9FED566A86EE267A514BC3
:1028A8009B6BC3F3080306EE903AF8EE666A9FED59
:1028B8004F6A67EE867A76EEA77AF7EE006A77EEC9
:1028C800A67A27EE277A1BE007EE10CAF8EE476AC9
:1028D8009FED486A86EE267A424B9B6BC3F308034A
:1028E80006EE903AF8EE666A9FED406A67EE867AE1
:1028F80076EEA77AF7EE006A77EEA67A27EE277AC1
:10290800384A936BC3F3462307EE903AF8EE677A9A
:10291800F7EE006A77EEA67A87EE276ABCEEC66AFB
:1029280080ED006A936BC3F3064307EE903AF8EE26
:10293800677A77EEA67A87EE276ABCEEC66A80EDDC
:10294800016A936BC3F3066307EE903AF8EE677A71
:1029580077EEA67AC7EE276AFCEEE66AC0ED026A51
:102968005DF8044B704707EE10CAF8EE476A9FED12
:10297800226A86EE267A1B4B9B6BC3F3080306EE8E
:10298800903AF8EE666A9FED196A67EE867A76EEF7
:10299800A77AF7EE006A77EEA67A27EE277AAFE7EE
:1029A80007EE10CAF8EE476A9FED126A86EE267A9D
:1029B8000C4B9B6BC3F3080306EE903AF8EE666A7D
:1029C8009FED0A6A67EE867A76EEA77AF7EE006AD6
:1029D80077EEA67A27EE277A92E700230360436012
:1029E8008360BDE7004402580090D003000000391E
:1029F8000024744C0024744A20BCBE4B10B4794B9C
:102A08009A6A9C6AC4F3055CD96AC1F300215B6CBD
:102A1800C3F3CC0301FB03F314F07C7F00F0DD80EB
:102A280002F0030207EE903AF8EE677A012A4BD0DB
:102A3800022A00F09880002A40F0B280694B1B6897
:102A480013F0200F23D067490A68C2F3C102664B0E
:102A5800D34007EE103AF8EE476A07EE10CAB8EE10
:102A6800476A86EE867A0B6CC3F3080306EE903A43
:102A7800F8EE666A9FED5D6A67EE867A76EEA77A6B
:102A8800F7EE006A77EEA67A27EE277A38E007EEA7
:102A980010CAF8EE476A9FED566A86EE267A514BC1
:102AA8001B6CC3F3080306EE903AF8EE666A9FEDD6
:102AB8004F6A67EE867A76EEA77AF7EE006A77EEC7
:102AC800A67A27EE277A1BE007EE10CAF8EE476AC7
:102AD8009FED486A86EE267A424B1B6CC3F30803C7
:102AE80006EE903AF8EE666A9FED406A67EE867ADF
:102AF80076EEA77AF7EE006A77EEA67A27EE277ABF
:102B0800384A136CC3F3462307EE903AF8EE677A17
:102B1800F7EE006A77EEA67A87EE276ABCEEC66AF9
:102B280080ED006A136CC3F3064307EE903AF8EEA3
:102B3800677A77EEA67A87EE276ABCEEC66A80EDDA
:102B4800016A136CC3F3066307EE903AF8EE677AEE
:102B580077EEA67AC7EE276AFCEEE66AC0ED026A4F
:102B68005DF8044B704707EE10CAF8EE476A9FED10
:102B7800226A86EE267A1B4B1B6CC3F3080306EE0B
:102B8800903AF8EE666A9FED196A67EE867A76EEF5
:102B9800A77AF7EE006A77EEA67A27EE277AAFE7EC
:102BA80007EE10CAF8EE476A9FED126A86EE267A9B
:102BB8000C4B1B6CC3F3080306EE903AF8EE666AFA
:102BC8009FED0A6A67EE867A76EEA77AF7EE006AD4
:102BD80077EEA67A27EE277A92E700230360436010
:102BE8008360BDE7004402580090D003000000391C
:102BF8000024744C0024744A20BCBE4BF0B583B04A
:102C080000236BE085685E000324B44025EA0405D0
:102C1800CC68B4402C438460456825EA0C054C68B0
:102C2800C4F300149C402C43446069E0DD08083577
:102C380050F8254003F0070C4FEA8C0C4FF00F0EAC
:102C48000EFA0CFE24EA0E0E0C6904FA0CF444EA9F
:102C58000E0440F825406BE0092400E0002404FA43
:102C68000EF42C430CF1020C694D45F82C404FF042
:102C7800B0442568D44325EA02064F6817F4801F3C
:102C880001D042EA05064FF0B0452E606D6804EAAF
:102C980005064F6817F4001F01D042EA05064FF0F9
:102CA800B0456E60D5F8845004EA05064F6817F4FD
:102CB800003F01D042EA05064FF0B045C5F88460F0
:102CC800D5F880502C404E6816F4803F01D042EA77
:102CD80005044FF0B042C2F8804001330A6832FA66
:102CE80003F400F092804FF0010C0CFA03FC1CEA8C
:102CF8000202F2D04C6804F00304013C012C81D993
:102D08004C6804F00304032C0CD0C4685D004FF039
:102D1800030C0CFA05FC24EA0C0C8C68AC4044EA61
:102D28000C04C4604C6804F00304022C3FF47EAF2A
:102D380004684FEA430E4FF0030C0CFA0EFC24EA29
:102D48000C0C4C6804F0030404FA0EF444EA0C0476
:102D580004604C6814F4403FBFD02E4CD4F8F450B3
:102D680045F00205C4F8F450D4F8F44004F0020425
:102D78000194019C4FEA930C0CF10205244C54F881
:102D8800255003F0030E4FEA8E0E0F2404FA0EF4BA
:102D980025EA0405204CA0423FF460AF04F58064A6
:102DA800A04222D004F58064A04220D004F58064BB
:102DB800A0421ED004F58064A0421CD004F58064B3
:102DC800A0421AD004F58064A04218D004F58064AB
:102DD800A04216D004F58064A04214D004F58064A3
:102DE800A0423FF439AF0A2439E7012437E7022427
:102DF80035E7032433E7042431E705242FE70624C5
:102E08002DE707242BE7082429E703B0F0BD00BF0E
:102E18000004005800440258000002580AB18161B9
:102E28007047090481617047436901EA030221EA96
:102E3800030141EA0241816170470000134BDB68DE
:102E480013F0040F07D1114BDB6803F0070383422B
:102E58001AD00120704710B50C4AD36823F0070335
:102E68000343D36000F076F80446084B5B6813F41C
:102E7800005F07D100F06EF8001BB0F57A7FF4D937
:102E8800012000E0002010BD0020704700480258D3
:102E9800104B1B780BB90120704710B504464FF44E
:102EA8007A70B0FBF3F30C4A1068B0FBF3F0FDF74F
:102EB800F3FF68B90F2C01D901200AE0002221464E
:102EC8004FF0FF30FDF7D8FF044B1C60002000E0F6
:102ED800012010BD000000200C000020040000208C
:102EE80010B50320FDF7B6FFFEF78CFB0F498B6981
:102EF800C3F303230E4AD35C03F01F03D8408B6946
:102F080003F00F03D35C03F01F0320FA03F3094A0D
:102F18001360094B18600F20FFF7BAFF10B10124A6
:102F2800204610BD0446FDF751FFF9E7004402585A
:102F3800FC3F0008080000200C000020034B1B7811
:102F4800034A11680B441360704700BF000000205B
:102F580030020020014B1868704700BF3002002083
:102F680038B50446FFF7F6FF0546B4F1FF3F02D037
:102F7800044B1B781C44FFF7EDFF401BA042FAD31B
:102F880038BD00BF00000020014B1868000C7047D6
:102F98000010005C034A536823EA00030B435360A4
:102FA800704700BF0004005830B40A6850F8223057
:102FB80023F0010340F822308B68082B30D000241E
:102FC8004A6822431343CA6813430A6913434A6988
:102FD80013438A691343CA6913430A6A13434A6A43
:102FE80013438A6A1343CA6A13430A6B1A434B6B27
:102FF8001A438B6B1A430C6850F824500E4B2B4025
:10300800134340F824300B6BB3F5801F0AD00B68CC
:103018001BB103684A6B13430360002030BC704740
:103028004024CDE70A68002AF1D0026822F4801211
:1030380013430360EBE700BF8004C0FF10B40B68C4
:103048004C6843EA04138C6843EA0423CC6843EAD7
:1030580004430C6904F1FF3C43EA0C534C69A4F1A6
:10306800020C43EA0C6301328C69234340F8223096
:10307800036813F4801F0BD0426822F470020B69B6
:10308800013B42EA0352436823F47003134343604D
:1030980000205DF8044B7047B3F5804F05D06FF002
:1030A800704340F822300020704730B450F8223086
:1030B800094C1C400B684D6843EA05138D6843EAC8
:1030C80005238D692B43C96843EA01431C4340F833
:1030D8002240002030BC70470000F0CF68B370B5C4
:1030E8000E461546044690F845300BB3214651F874
:1030F800080BFFF759FFA26831462068FFF79EFFCB
:10310800E36AA26829466068FFF7C6FF2268A168DB
:1031180052F8213043F0010342F82130084A13687D
:1031280043F000431360012384F84530002070BD4C
:1031380080F84430FDF796FCD8E70120704700BFBF
:10314800004000522DE9F84305460F4616469946B9
:10315800DDF820802C68A4683C4214BF4FF0010CB5
:103168004FF0000CB44514D0B8F1FF3FF2D0FFF790
:10317800F1FEA0EB0900404502D8B8F1000FE9D1F3
:10318800042385F841306B6C43F001036B64012024
:1031980000E00020BDE8F8838164704770B582B014
:1031A8000446FFF7D7FE002C45D0064694F8413078
:1031B800002B37D025682A6822F4F852A168013913
:1031C80042EA01222A60A36C0093334600222021A0
:1031D8002046FFF7B7FF18BB21680B68174A1A404B
:1031E8006568E36843EA0563E5692B43256A2B4371
:1031F8001A430A6021684A68114B134025696269BD
:1032080042EA0542A5692A4313434B6022681368C2
:1032180043F00103136000236364012384F8413001
:1032280002B070BD2046FDF73FFC41F288312046D0
:10323800FFF7B2FFBEE70120F2E700BF2FFFFF0054
:10324800FEF8E0FFC36B5B09C0680830C00803FBE9
:1032580000007047002800F0B78070B504460023CE
:10326800836205685C4B5D4E9D4218BFB54214BF32
:103278000126002607D0A3F574439D4203D0C368F6
:103288000F2B00F2A3802046FFF7DCFF2EB1544B32
:103298009D4202D0082800F29B804F4A4F4B9D4226
:1032A80018BF954203D003F580639D4202D11028D0
:1032B80000F2908094F88130F3B1022384F88130D1
:1032C8002268136823F00103136023689A6802F4E4
:1032D800F812A169B1F1806F14D0636813F4800FFC
:1032E80023D0E368062B20D921680B6823F4807368
:1032F800206D03430B601DE084F880302046FDF705
:103308008DFCDAE76168B1F5800F06D00029E4D1B9
:10331800A16BB1F1805FE0D102E0A06B0028F5D18C
:10332800196841F480511960D7E721680B6823F4C4
:1033380080730B60E369A16A0B431343E26B134389
:10334800E16822680B439360636B626A1343A26B64
:103358001343A26913432269134362691343226A20
:10336800134362681343E26C1343A2681343A26CCD
:103378001343A16D22680B43D36063686BB922685D
:10338800936823F4C05343F40063936022689368FE
:1033980023F4C06343F4806393602268136D23F0C1
:1033A80001031365636813F4800F06D02268D3689D
:1033B80023F00043616D0B43D3600020C4F8840000
:1033C800012384F8813070BD012070470120FAE79D
:1033D8000120F8E70120F6E70030014000380040FE
:1033E800003C0040026852E8003F23F4907342E832
:1033F80000310029F6D1026802F1080353E8001FE2
:103408000D4B0B40083242E800310029F3D1C36E5E
:10341800012B06D02023C0F88C300023C3664367F5
:103428007047026852E8003F23F0100342E8003179
:103438000029F6D1EEE700BFFEFFFFEF70B586B0BA
:10344800044683680269134342691343C2691343FC
:1034580001680868884A02401A430A60226853686B
:1034680023F44053E1680B435360A1692268834BFE
:103478009A4201D0236A19439068814B03400B4359
:1034880093602268D36A23F00F03616A0B43D36207
:1034980023687C4A934221D07B4A934200F08C8077
:1034A8007A4A934200F0A280794A934200F0B580AC
:1034B800784A934200F0C880774A934200F0F4803B
:1034C800764A934200F01981754A934200F02C81A4
:1034D8006A4A934200F03F81802233E0714A526D7C
:1034E80002F03802282A65D8DFE812F029006400C3
:1034F8006400640064006400640064004D016400BA
:103508006400640064006400640064002B006400CC
:103518006400640064006400640064005E00640089
:103528006400640064006400640064006000640077
:1035380064006400640064006400640062000122A6
:1035480000E008224D498B4200F02F81E069B0F578
:10355800004F00F0AF81202A00F20682202A00F2F4
:103568005382DFE812F008022202510251022502BA
:103578005102510251022A025102510251025102D2
:103588005102510251022F025102510251025102BD
:10359800510251025102510251025102510251028B
:1035A8005102510251023B021022CBE72022C9E707
:1035B8004022C7E78022C5E73A4A526D02F0070267
:1035C800052A11D8DFE812F00600E10008000A0019
:1035D8000C000E000022B5E70822B3E71022B1E77D
:1035E8002022AFE74022ADE78022ABE72D4A526D9B
:1035F80002F00702052A0ED8DFE802F003C9050722
:10360800090B00229EE708229CE710229AE7202255
:1036180098E7402296E7802294E7224A526D02F00A
:103628000702052A0ED8DFE802F003B40507090BE4
:10363800002287E7082285E7102283E7202281E716
:1036480040227FE780227DE7164A526D02F007028A
:10365800052A0ED8DFE802F0039F0507090B0022B0
:1036680070E708226EE710226CE720226AE7402202
:1036780068E7802266E700BFF369FFCF000C0058B7
:10368800FFF4FF11001001400044004000480040D2
:10369800004C0040005000400014014000780040F9
:1036A800007C0040004402587D4A526D02F0380206
:1036B800282A20D8DFE802F0151F1F1F1F1F1F1F11
:1036C800711F1F1F1F1F1F1F171F1F1F1F1F1F1FB8
:1036D800191F1F1F1F1F1F1F1B1F1F1F1F1F1F1FFC
:1036E8001D0001222EE708222CE710222AE72022BB
:1036F80028E7402226E7802224E7694A526D02F033
:103708000702052A0ED8DFE802F0034A0507090B6D
:10371800002217E7082215E7102213E7202211E7F5
:1037280040220FE780220DE75D4A526D02F0070242
:10373800052A0ED8DFE802F003350507090B002239
:1037480000E70822FEE61022FCE62022FAE64022E4
:10375800F8E68022F6E602F50E32926D02F00702D4
:10376800052A0ED8DFE802F0031F0507090B02221D
:10377800E8E60822E6E61022E4E62022E2E6402215
:10378800E0E68022DEE60422DCE60422DAE6042211
:10379800D8E60422D6E60422D4E60422D2E604229D
:1037A800D0E60422CEE60422CCE6202A27D8022A34
:1037B800C0F01881023A1E2A00F21681DFE812F0E2
:1037C8002600140156001401140114015B001401B1
:1037D80014011401140114011401140160001401EE
:1037E8001401140114011401140114011401140129
:1037F8001401140114011401140114016C00402A6D
:1038080002D14FF4004006E00120FEE0FEF7E4FF9D
:10381800002800F0EB80626A224B33F81220B0FBDC
:10382800F2F3656805EB4501994200F2E180B3EBDC
:10383800053F00F2DF80002633463146FCF748FD9D
:10384800090241EA106100026B08C0182A46334693
:1038580041F10001FCF73CFDA0F54072124B9A4281
:1038680000F2CA802368D8603046CEE003A8FEF78D
:10387800C5FF0498CCE76846FFF7C0F80198C7E78A
:10388800074B1B6813F0200F08D0054B1B68C3F3C8
:10389800C1030648D840BEE70548BCE70348BAE775
:1038A80000440258D43F0008FFFC0F000090D003EA
:1038B80000093D00202A15D8202A00F29F80DFE861
:1038C80002F015369D9D399D9D9D3E9D9D9D9D9D1A
:1038D8009D9D439D9D9D9D9D9D9D9D9D9D9D9D9D6A
:1038E8009D9D4F00402A06D001208EE0FEF7F2F899
:1038F800002800F08580626A4B4B33F81230B0FB29
:10390800F3F06268530803EB4003B3FBF2F3A3F14F
:1039180010014FF6EF72914274D89AB222F00F025A
:10392800C3F3420313432268D36000206DE0FEF71F
:10393800E3F8DDE703A8FEF761FF0498D8E76846D7
:10394800FFF75CF80198D3E7384B1B6813F0200F9A
:1039580008D0364B1B68C3F3C1033548D840CAE7C3
:103968003448C8E73248C6E7402A02D14FF400403D
:1039780005E0012049E0FEF7ADF800284FD0626A63
:10398800294B33F81230B0FBF3F0636800EB5300B7
:10399800B0FBF3F0A0F110024FF6EF739A4240D853
:1039A800236880B2D86000202FE0FEF7A5F8E4E78E
:1039B80003A8FEF723FF0498DFE76846FFF71EF821
:1039C8000198DAE7194B1B6813F0200F08D0174B42
:1039D8001B68C3F3C1031648D840D0E71548CEE7A3
:1039E8001348CCE7012010E001200EE000200CE095
:1039F80001200AE0012008E0012006E0012004E09F
:103A0800002002E0012000E001200123A4F86A3030
:103A1800A4F8683000236367A36706B070BD002070
:103A2800F3E70120F1E700BFD43F00080044025843
:103A38000090D00300093D00836A13F0080F06D0F8
:103A48000268536823F40043816B0B435360836A15
:103A580013F0010F06D00268536823F40033C16ADB
:103A68000B435360836A13F0020F06D00268536851
:103A780023F48033016B0B435360836A13F0040F04
:103A880006D00268536823F48023416B0B435360CC
:103A9800836A13F0100F06D00268936823F48053EA
:103AA800C16B0B439360836A13F0200F06D0026842
:103AB800936823F40053016C0B439360836A13F0FB
:103AC800400F0AD00268536823F48013416C0B43FB
:103AD8005360436CB3F5801F0BD0836A13F0800FDB
:103AE80006D00268536823F40023C16C0B4353606B
:103AF80070470268536823F4C003816C0B4353601A
:103B0800EBE72DE9F84305460E4617469946DDF8DA
:103B180020802B68DC6936EA04040CBF01240024E9
:103B2800BC423AD1B8F1FF3FF3D0FFF713FAA0EB4C
:103B38000900404534D8B8F1000F33D02B681A6813
:103B480012F0040FE5D0B6F1400218BF0122802E12
:103B5800DFD0002ADDD0DA6912F0080F11D1DA6956
:103B680012F4006FD5D04FF400621A622846FFF7AE
:103B780039FC2023C5F89030002385F884300320D1
:103B88000CE008241C622846FFF72CFCC5F890407E
:103B9800002385F88430012000E00020BDE8F88388
:103BA8000320FBE70320F9E730B583B00446002380
:103BB800C0F89030FFF7CEF905462268126812F077
:103BC800080F10D123681B6813F0040F28D1202395
:103BD800C4F88830C4F88C300020E066206784F888
:103BE800840003B030BD6FF07E430093034600228B
:103BF8004FF400112046FFF784FF0028E2D0226826
:103C080052E8003F23F0800342E800310029F6D152
:103C18002023C4F88830002384F884300320E0E7A8
:103C28006FF07E4300932B4600224FF4800120461C
:103C3800FFF767FF0028CAD0226852E8003F23F444
:103C4800907342E800310029F6D1226802F1080396
:103C580053E8003F23F00103083242E8003100290D
:103C6800F3D12023C4F88C30002384F88430032057
:103C7800B7E778B310B50446D0F888300BB32423DF
:103C8800C4F888302268136823F001031360A36A1C
:103C9800E3B92046FFF7D2FB012811D02268536808
:103CA80023F4904353602268936823F02A039360B7
:103CB8002268136843F0010313602046FFF774FF7E
:103CC80010BD80F88430FDF729F8D8E72046FFF7C3
:103CD800B3FEDEE701207047436E2BB90123A0F83D
:103CE8006A30A0F86830704730B403689A68C2F345
:103CF80042629968490F094D6B5C1B01084C615C75
:103D080093FBF1F3A0F86A30AB5C1B01A25C93FB58
:103D1800F2F3A0F8683030BC704700BFF43F0008E9
:103D2800EC3F000890F88430012B18D0012380F86C
:103D380084302423C0F8883003681A68196821F091
:103D48000101196022F000520023436601680A60ED
:103D58002022C0F8882080F8843018467047022056
:103D6800704738B590F88430012B1DD004460123E4
:103D780080F884302423C0F8883003681D681A68E6
:103D880022F001021A600268936823F06043194325
:103D98009160FFF7A1FF23681D602023C4F88830D5
:103DA800002084F8840038BD0220FCE738B590F87C
:103DB8008430012B1DD00446012380F8843024234D
:103DC800C0F8883003681D681A6822F001021A607A
:103DD8000268936823F0606319439160FFF77CFFE2
:103DE80023681D602023C4F88830002084F88400EC
:103DF80038BD0220FCE70000314AD2F8883043F48D
:103E08007003C2F888302F4B1B6803F00F03062B92
:103E180006D82C4A136823F00F0343F007031360F6
:103E2800294B1A6842F001021A6000221A611968C7
:103E3800264A0A401A60234B1B6813F0080F06D065
:103E4800204A136823F00F0343F0070313601E4B47
:103E580000229A61DA611A621D4999621D49D96284
:103E68001D4919635A639963DA6319645A641968B6
:103E780021F4802119601A66184B1B686FF30F0331
:103E8800B3F1005F03D2164B0122C3F808210E4B91
:103E9800D3F8D43013F4805F10D10B4BD3F8D4206F
:103EA80042F48052C3F8D4200E4A43F2D201116082
:103EB800D3F8D42022F48052C3F8D420704700BF2E
:103EC80000ED00E000200052004402587FEDF6EAC1
:103ED800000202020000FF01800201010010005CE4
:103EE8000080005100400052054AD36843F00203A5
:103EF800D360034B5B6813F4005FFAD0704700BFD0
:103F080000480258DFF838D0FFF7EEFFFFF774FFDC
:103F18000C480D490D4A002302E0D458C45004331C
:103F2800C4188C42F9D30A4A0A4C002301E01360F2
:103F38000432A242FBD300F019F8FCF7E9FB704702
:103F48000000022000000020100000201C40000893
:103F58001000002034020020FEE70244034693428A
:103F680000D1704703F8011BF9E7000070B50D4D4B
:103F78000D4C641BA4100026A64209D10B4D0C4C15
:103F880000F018F8641BA4100026A64205D170BDE5
:103F980055F8043B98470136EEE755F8043B984737
:103FA8000136F2E7144000081440000814400008E5
:103FB80018400008F8B500BFF8BC08BC9E4670471A
:0C3FC800F8B500BFF8BC08BC9E4670476E
:103FD400010002000400060008000A000C001000A2
:103FE40020004000800000010804020408010101CF
:103FF40001010103070100000000000001020304A5
:0840040001020304060708098C
:08400C00FCC2FF7F010000006F
:04401400BD020008E1
:044018009902000801
:10401C0001000000100000000090D0030090D003BD
:0400000508003F0DA3
:00000001FF
